:020000020000FC
:0200000025C019
:1000400072C03F065B4F666D7D077F6F0FEF0DBF80
:1000500008E00EBF00EF0AB90CE00BB907E004B9E5
:100060000FE307B905E005BD01E000936E0011271D
:10007000222733279927789431D048D007D008B168
:10008000007F632F6F70062B08B9F6CF4498459810
:10009000012F1DD00AD0449A52D04498022F17D075
:1000A00004D0459A4CD045980895642F6F7062959E
:1000B0007BB17F70762B7BB9642F669566956695CC
:1000C0006695677075B1787F762B75B90895E2E40F
:1000D000F0E0E00F5527F51F449108954A9908C0B4
:1000E00035D04A9908951395D1DF4A9BFDCF0895E5
:1000F0004B9908952BD04B990895112311F41AE0D0
:100100002A951A95C3DF4B9BFDCF08951A3011F441
:10011000112723952F3F11F411272227263011F4A0
:100120001127222708950F930FB70F9393959D33AF
:1001300011F4992733950F910FBF0F91189564E62D
:100140007AEF7A95F1F76A95D9F708956FEF7FEF17
:0A0150007A95F1F76A95D9F7089542
:00000001FF
