:020000020000FC
:100000000C9406000FEF0DBF08E00EBF00E8009350
:10001000610003E00093610052985A9A53985B9AEA
:1000200054985C9A55985D9A56985E9A209A219AAF
:10003000229A239A389A399A3A9A3B9A249A259A7C
:100040003C9A3D9A579A00E0302F402FA02EB02EB8
:1000500001E0502F602F702F802F902F2C982D981B
:10006000449845985F9805B1007F05B908B1007FB5
:1000700008B94A9B0C94400001E0502F0C945B009F
:1000800012E31A95F1F74A9B0C9448000C945B001C
:1000900001E0501711F00C945B0000E0502F3395F5
:1000A00000E1301710F000E0302F05B1007F232F62
:1000B0002F70022B05B94B9B0C94620001E0602F5E
:1000C0000C947D0012E31A95F1F74B9B0C946A0097
:1000D0000C947D0001E0601711F00C947D0000E0AD
:1000E000602F3A950FEF301711F40FE0302F05B164
:1000F000007F232F2F70022B05B94C9B0C9484009A
:1001000001E0702F0C949F0012E31A95F1F74C9BBD
:100110000C948C000C949F0001E0701711F00C946B
:100120009F0000E0702F439500E1401710F000E0C1
:10013000402F08B1007F242F2F70022B08B94D9B50
:100140000C94A60001E0802F0C94C10012E31A95D4
:10015000F1F74D9B0C94AE000C94C10001E08017A8
:1001600011F00C94C10000E0802F4A950FEF40176A
:1001700011F40FE0402F08B1007F242F2F70022BC5
:1001800008B94E9B0C94C80001E0902F0C943900E4
:1001900012E31A95F1F74E9B0C94D0000C943900A1
:1001A00001E0901711F00C94390000E0902FA32E7D
:1001B000A40E00E1A01630F001E0B02E00E1A01A7C
:1001C0000C94E40000E0B02EA0FC0C94EA002C9803
:1001D0000C94EB002C9AA1FC0C94F1002D980C943B
:1001E000F2002D9AA2FC0C94F80044980C94F900AB
:1001F000449AA3FC0C94FF0045980C940001459A86
:1002000001E0B01619F05F980C9439005F9A0C94D5
:020210003900B3
:00000001FF
