:020000020000FC
:1000000008C03F065B4F666D7D077F6F777C395E6A
:1000100079710FEF0DBF08E00EBFF0E0E2E01127AD
:100020003327442755276627772788279FEF00EC3B
:100030000AB900E30BB90FE304B90FE007B900E018
:1000400004BD05E005BD06E006BD01E005BB5CD0D2
:100050007CD053D005B300FF16C001E005BB06E01D
:1000600006BD4395463079F4442753955A3059F4E8
:1000700055273395303109F4332767D0311719F4F8
:10008000332763D035D009B1A02FA072B92FB07239
:10009000AB1711F477270AC07395753039F47727B9
:1000A0009F7DB02FB0729B2B05FF16D055D009B1A4
:1000B000A02FA071B92FB071AB1711F488270AC017
:1000C0008395853039F488279F7EB02FB0719B2BA4
:1000D00004FF08D041D0BECF1395103109F4112789
:1000E00013D008951A951F3F09F41FE00DD008950D
:1000F000603011F0662701C061E005B10F7D61300D
:1001000009F4006205B90895EF93FF934F93E2E07D
:10011000F0E0E10F40E0F41F24910BB10F73322F98
:100120003370330F330F330F330F330F330F032B72
:100130000BB905B1007E322F369536953F71032BF2
:1001400005B94F91FF91EF91089508B1007F332FCA
:100150003F70032B08B908954F935F9340E15AEF26
:0E0160005A95F1F74A95D9F75F914F9108959E
:00000001FF
