:100000000C9434000C943E000C943E000C943E0082
:100010000C943E000C943E000C943E000C943E0068
:100020000C943E000C943E000C943E000C943E0058
:100030000C943E000C943E000C943E000C943E0048
:100040000C943E000C943E000C943E000C943E0038
:100050000C943E000C943E000C943E000C943E0028
:100060000C943E000C943E0011241FBECFEFD8E04C
:10007000DEBFCDBF0E9463000C944B010C940000C6
:10008000E1E6F0E080E880831082089580E48093C8
:100090007C00EAE7F0E087E88083808180648083E9
:1000A00080917A0086FDFCCF0895EAE7F0E0808138
:1000B0008064808380917A0086FDFCCF80917800F7
:1000C0009091790008950E9440000E94460022E02D
:1000D00041E060E080E00E9487000E9455009C01A2
:1000E000A4EBB0E00E943C012FEF33E040E050E091
:1000F0000E941A01822F0E9404012FEF89EF90E0E5
:10010000215080409040E1F700C00000E6CF94B15C
:10011000966094B910928000109281001092850030
:1001200010928400811106C0E0E8F0E080818068D0
:10013000808305C0E0E8F0E08081806C80836111FD
:1001400006C0E0E8F0E080818062808305C0E0E8DE
:10015000F0E0808180638083413059F4E0E8F0E092
:10016000808182608083E1E8F0E080818861808323
:100170000AC0E0E8F0E0808182608083E1E8F0E09E
:100180008081806180838FE99FE0909387008093D6
:10019000860088EB9BE09093890080938800909381
:1001A0008B0080938A002330B9F028F4213041F08D
:1001B000223061F023C02430A9F02530C9F01EC0E0
:1001C000E1E8F0E08081816080830895E1E8F0E07B
:1001D0008081826080830895E1E8F0E0808183601F
:1001E00080830895E1E8F0E0808184608083089551
:1001F000E1E8F0E08081856080830895E1E8F0E047
:100200008081826080830895853B08F084EB282FED
:1002100030E0A0EDB7E00E943C0124EB30E040E08C
:1002200050E00E941A012053384F309389002093E8
:1002300088000895A1E21A2EAA1BBB1BFD010DC068
:10024000AA1FBB1FEE1FFF1FA217B307E407F50786
:1002500020F0A21BB30BE40BF50B661F771F881F62
:10026000991F1A9469F760957095809590959B01F8
:10027000AC01BD01CF010895A29FB001B39FC001A1
:10028000A39F700D811D1124911DB29F700D811DC2
:0A0290001124911D0895F894FFCF8A
:00000001FF
