:020000020000FC
:0200000038C006
:02000C0056C1DB
:02003400A8C062
:02003800C0C046
:100068003F065B4F666D7D077F6F0FEF0DBF08E0A2
:100078000EBF0FE304B90CEF0AB900E207B90FE1AC
:1000880008B9002705B90BB902E004BD03E005BDB6
:1000980009EF07BD02E000936E000DE300938900AD
:1000A80008E0009388000DE00093810002E00093CF
:1000B8006F0002E0009368000FE100936C0000E01D
:1000C80000930001009301010093020100930801CD
:1000D80000930901009307010093050100930601AD
:1000E80000930A0100930B0100930C0100930D018A
:1000F80001E000930301009304019927332788271F
:10010800789401D0FECF9130A1F0933091F09430E3
:10011800F9F000C0009102012AD050930A016093BF
:100128000B010091010123D050930C0160930D0144
:100138000895009103011BD050930A0160930B01AD
:100148000091040114D050930C0160930D0108959F
:10015800009105010CD050930A0160930B010091A6
:10016800060105D050930C0160930D0108955527A1
:100178000A3018F00A505395FBCF602F08950F935B
:100188000FB70F934F935F93032F002361F40091F0
:10019800000103950C3329F4002700930001DAD0FD
:1001A80002C0009300015F914F910F910FBF0F9113
:1001B80018950F930FB70F932F934F935F930BB12E
:1001C800037C0BB9803029F0813031F0823039F06E
:1001D80009C020910A0108C020910B0105C0209197
:1001E8000C0102C020910D0141D0803029F08130EE
:1001F80029F0823029F006C05D9A05C05C9A03C0D8
:100208005B9A01C05A9A83958370009108010395FF
:10021800943051F0083C89F40027923068F045B1D9
:1002280050E2452745B909C00E3139F4002745B1D8
:1002380050E2452745B901C02D9A0093080107D01F
:100248005F914F912F910F910FBF0F911895943097
:1002580061F40091090103950D3729F400274BB18A
:1002680053E045274BB90093090108952A3018F047
:1002780020E00BB90895F0E0E8E6E20F0027F01F50
:100288004491552740FB54F941FB53F942FB52F97D
:1002980043FB51F944FB50F905B1007E052B05B924
:1002A800662745FB67F946FB66F90BB10F73062B0A
:1002B8000BB90F930FB70F934F9306B104FD03C00B
:1002C8002ED019D013C000FD03C090D018D00EC096
:1002D80001FD03C0B0D017D009C002FD03C0D1D0C2
:1002E80016D004C003FD02C0EED015D04F910F9177
:1002F8000FBF0F91189506B104FFFDCF089506B101
:1003080000FFFDCF089506B101FFFDCF089506B1A6
:1003180002FFFDCF089506B103FFFDCF08950091B8
:100328000701013029F40027009307014598089533
:100338009395953008F09927923010F4332702C02E
:1003480031E000C0923010F42D9A089500270093F0
:10035800080108950091010103950C3331F4002739
:100368000093010106D012D00895009301010ED028
:100378000895009102010395083129F4002700939C
:1003880002011BD0089500930201089540910201D3
:1003980050910501451759F440910101509106010A
:1003A800451729F401E000930701459A0895009143
:1003B8000701013009F045980895409103015091D3
:1003C80004014395A2D0461728F041E04093030169
:1003D80004D0089540930301089500910401039502
:1003E8000D3008F001E0009304010895923029F0DF
:1003F800933061F09430B1F00895009102010395B3
:10040800083108F000270093020108954091030184
:1004180050910401439579D0461708F041E0409384
:1004280003010895009105010395083108F000279C
:10043800009305010895923029F0933061F09430CB
:10044800B9F00895009102010A950F3F09F407E1F8
:1004580000930201089540910301509104014A95C7
:10046800403019F452D06A95462F409303010895FD
:10047800009105010A950F3F09F407E10093050172
:100488000895923029F0933061F0943099F00895EE
:100498000091010103950C3308F000270093010136
:1004A80008950091040103950D3008F001E00093D0
:1004B800040108950091060103950C3308F0002704
:1004C800009306010895923029F0933061F094303A
:1004D80099F00895009101010A950F3F09F40BE383
:1004E800009301010895009104010A95003009F470
:1004F8000CE0009304010895009106010A950F3F4E
:1005080009F40BE3009306010895523051F054307A
:1005180051F0563041F0593031F05B3021F060E253
:0A05280008956DE108956FE1089554
:00000001FF
